{
  "_format": "hh3-artifact-1",
  "contractName": "Charity",
  "sourceName": "contracts/Charity.sol",
  "abi": [
    {
      "inputs": [
        {
          "internalType": "string",
          "name": "_title",
          "type": "string"
        },
        {
          "internalType": "uint256",
          "name": "_target",
          "type": "uint256"
        },
        {
          "internalType": "uint256",
          "name": "_secondsUntilDeadline",
          "type": "uint256"
        }
      ],
      "stateMutability": "nonpayable",
      "type": "constructor"
    },
    {
      "anonymous": false,
      "inputs": [
        {
          "indexed": true,
          "internalType": "address",
          "name": "donor",
          "type": "address"
        },
        {
          "indexed": false,
          "internalType": "uint256",
          "name": "amount",
          "type": "uint256"
        }
      ],
      "name": "ContributionMade",
      "type": "event"
    },
    {
      "anonymous": false,
      "inputs": [
        {
          "indexed": false,
          "internalType": "uint256",
          "name": "amount",
          "type": "uint256"
        }
      ],
      "name": "Withdrawn",
      "type": "event"
    },
    {
      "inputs": [],
      "name": "contribute",
      "outputs": [],
      "stateMutability": "payable",
      "type": "function"
    },
    {
      "inputs": [
        {
          "internalType": "address",
          "name": "",
          "type": "address"
        }
      ],
      "name": "contributions",
      "outputs": [
        {
          "internalType": "uint256",
          "name": "",
          "type": "uint256"
        }
      ],
      "stateMutability": "view",
      "type": "function"
    },
    {
      "inputs": [],
      "name": "deadline",
      "outputs": [
        {
          "internalType": "uint256",
          "name": "",
          "type": "uint256"
        }
      ],
      "stateMutability": "view",
      "type": "function"
    },
    {
      "inputs": [
        {
          "internalType": "uint256",
          "name": "",
          "type": "uint256"
        }
      ],
      "name": "donors",
      "outputs": [
        {
          "internalType": "address",
          "name": "",
          "type": "address"
        }
      ],
      "stateMutability": "view",
      "type": "function"
    },
    {
      "inputs": [],
      "name": "getDonorCount",
      "outputs": [
        {
          "internalType": "uint256",
          "name": "",
          "type": "uint256"
        }
      ],
      "stateMutability": "view",
      "type": "function"
    },
    {
      "inputs": [],
      "name": "getDonors",
      "outputs": [
        {
          "internalType": "address[]",
          "name": "",
          "type": "address[]"
        }
      ],
      "stateMutability": "view",
      "type": "function"
    },
    {
      "inputs": [],
      "name": "getTransactionCount",
      "outputs": [
        {
          "internalType": "uint256",
          "name": "",
          "type": "uint256"
        }
      ],
      "stateMutability": "view",
      "type": "function"
    },
    {
      "inputs": [],
      "name": "getTransactions",
      "outputs": [
        {
          "components": [
            {
              "internalType": "address",
              "name": "user",
              "type": "address"
            },
            {
              "internalType": "uint256",
              "name": "amount",
              "type": "uint256"
            },
            {
              "internalType": "uint256",
              "name": "timestamp",
              "type": "uint256"
            },
            {
              "internalType": "bool",
              "name": "isWithdrawal",
              "type": "bool"
            }
          ],
          "internalType": "struct Charity.Transaction[]",
          "name": "",
          "type": "tuple[]"
        }
      ],
      "stateMutability": "view",
      "type": "function"
    },
    {
      "inputs": [],
      "name": "owner",
      "outputs": [
        {
          "internalType": "address",
          "name": "",
          "type": "address"
        }
      ],
      "stateMutability": "view",
      "type": "function"
    },
    {
      "inputs": [],
      "name": "raised",
      "outputs": [
        {
          "internalType": "uint256",
          "name": "",
          "type": "uint256"
        }
      ],
      "stateMutability": "view",
      "type": "function"
    },
    {
      "inputs": [],
      "name": "target",
      "outputs": [
        {
          "internalType": "uint256",
          "name": "",
          "type": "uint256"
        }
      ],
      "stateMutability": "view",
      "type": "function"
    },
    {
      "inputs": [],
      "name": "title",
      "outputs": [
        {
          "internalType": "string",
          "name": "",
          "type": "string"
        }
      ],
      "stateMutability": "view",
      "type": "function"
    },
    {
      "inputs": [
        {
          "internalType": "uint256",
          "name": "",
          "type": "uint256"
        }
      ],
      "name": "transactions",
      "outputs": [
        {
          "internalType": "address",
          "name": "user",
          "type": "address"
        },
        {
          "internalType": "uint256",
          "name": "amount",
          "type": "uint256"
        },
        {
          "internalType": "uint256",
          "name": "timestamp",
          "type": "uint256"
        },
        {
          "internalType": "bool",
          "name": "isWithdrawal",
          "type": "bool"
        }
      ],
      "stateMutability": "view",
      "type": "function"
    },
    {
      "inputs": [],
      "name": "withdraw",
      "outputs": [],
      "stateMutability": "nonpayable",
      "type": "function"
    },
    {
      "stateMutability": "payable",
      "type": "receive"
    }
  ],
  "bytecode": "0x608060405234801561000f575f5ffd5b50604051611b62380380611b62833981810160405281019061003191906102a5565b5f8211610073576040517f08c379a000000000000000000000000000000000000000000000000000000000815260040161006a9061036b565b60405180910390fd5b5f81116100b5576040517f08c379a00000000000000000000000000000000000000000000000000000000081526004016100ac906103d3565b60405180910390fd5b825f90816100c391906105f8565b508160018190555080426100d791906106f4565b6002819055503360045f6101000a81548173ffffffffffffffffffffffffffffffffffffffff021916908373ffffffffffffffffffffffffffffffffffffffff160217905550505050610727565b5f604051905090565b5f5ffd5b5f5ffd5b5f5ffd5b5f5ffd5b5f601f19601f8301169050919050565b7f4e487b71000000000000000000000000000000000000000000000000000000005f52604160045260245ffd5b6101848261013e565b810181811067ffffffffffffffff821117156101a3576101a261014e565b5b80604052505050565b5f6101b5610125565b90506101c1828261017b565b919050565b5f67ffffffffffffffff8211156101e0576101df61014e565b5b6101e98261013e565b9050602081019050919050565b8281835e5f83830152505050565b5f610216610211846101c6565b6101ac565b9050828152602081018484840111156102325761023161013a565b5b61023d8482856101f6565b509392505050565b5f82601f83011261025957610258610136565b5b8151610269848260208601610204565b91505092915050565b5f819050919050565b61028481610272565b811461028e575f5ffd5b50565b5f8151905061029f8161027b565b92915050565b5f5f5f606084860312156102bc576102bb61012e565b5b5f84015167ffffffffffffffff8111156102d9576102d8610132565b5b6102e586828701610245565b93505060206102f686828701610291565b925050604061030786828701610291565b9150509250925092565b5f82825260208201905092915050565b7f546172676574206d757374206265203e203000000000000000000000000000005f82015250565b5f610355601283610311565b915061036082610321565b602082019050919050565b5f6020820190508181035f83015261038281610349565b9050919050565b7f446561646c696e65206d757374206265203e20300000000000000000000000005f82015250565b5f6103bd601483610311565b91506103c882610389565b602082019050919050565b5f6020820190508181035f8301526103ea816103b1565b9050919050565b5f81519050919050565b7f4e487b71000000000000000000000000000000000000000000000000000000005f52602260045260245ffd5b5f600282049050600182168061043f57607f821691505b602082108103610452576104516103fb565b5b50919050565b5f819050815f5260205f209050919050565b5f6020601f8301049050919050565b5f82821b905092915050565b5f600883026104b47fffffffffffffffffffffffffffffffffffffffffffffffffffffffffffffffff82610479565b6104be8683610479565b95508019841693508086168417925050509392505050565b5f819050919050565b5f6104f96104f46104ef84610272565b6104d6565b610272565b9050919050565b5f819050919050565b610512836104df565b61052661051e82610500565b848454610485565b825550505050565b5f5f905090565b61053d61052e565b610548818484610509565b505050565b5b8181101561056b576105605f82610535565b60018101905061054e565b5050565b601f8211156105b05761058181610458565b61058a8461046a565b81016020851015610599578190505b6105ad6105a58561046a565b83018261054d565b50505b505050565b5f82821c905092915050565b5f6105d05f19846008026105b5565b1980831691505092915050565b5f6105e883836105c1565b9150826002028217905092915050565b610601826103f1565b67ffffffffffffffff81111561061a5761061961014e565b5b6106248254610428565b61062f82828561056f565b5f60209050601f831160018114610660575f841561064e578287015190505b61065885826105dd565b8655506106bf565b601f19841661066e86610458565b5f5b8281101561069557848901518255600182019150602085019450602081019050610670565b868310156106b257848901516106ae601f8916826105c1565b8355505b6001600288020188555050505b505050505050565b7f4e487b71000000000000000000000000000000000000000000000000000000005f52601160045260245ffd5b5f6106fe82610272565b915061070983610272565b9250828201905080821115610721576107206106c7565b5b92915050565b61142e806107345f395ff3fe6080604052600436106100e0575f3560e01c806383920e901161007e5780639ace38c2116100585780639ace38c2146102a7578063d4b83992146102e6578063d7bb99ba14610310578063f0ea4bfc1461031a576100ef565b806383920e90146102295780638da5cb5b1461025357806396f300d41461027d576100ef565b806342e94c90116100ba57806342e94c901461015d5780634a79d50c146101995780634abfa163146101c357806369bc2f1e146101ff576100ef565b806329dcb0cf146100f35780632e7700f01461011d5780633ccfd60b14610147576100ef565b366100ef576100ed610344565b005b5f5ffd5b3480156100fe575f5ffd5b506101076106a9565b6040516101149190610c6e565b60405180910390f35b348015610128575f5ffd5b506101316106af565b60405161013e9190610c6e565b60405180910390f35b348015610152575f5ffd5b5061015b6106bb565b005b348015610168575f5ffd5b50610183600480360381019061017e9190610ce5565b61096f565b6040516101909190610c6e565b60405180910390f35b3480156101a4575f5ffd5b506101ad610984565b6040516101ba9190610d80565b60405180910390f35b3480156101ce575f5ffd5b506101e960048036038101906101e49190610dca565b610a0f565b6040516101f69190610e04565b60405180910390f35b34801561020a575f5ffd5b50610213610a4a565b6040516102209190610c6e565b60405180910390f35b348015610234575f5ffd5b5061023d610a56565b60405161024a9190610f50565b60405180910390f35b34801561025e575f5ffd5b50610267610b34565b6040516102749190610e04565b60405180910390f35b348015610288575f5ffd5b50610291610b59565b60405161029e9190611018565b60405180910390f35b3480156102b2575f5ffd5b506102cd60048036038101906102c89190610dca565b610be4565b6040516102dd9493929190611047565b60405180910390f35b3480156102f1575f5ffd5b506102fa610c4a565b6040516103079190610c6e565b60405180910390f35b610318610344565b005b348015610325575f5ffd5b5061032e610c50565b60405161033b9190610c6e565b60405180910390f35b6002544210610388576040517f08c379a000000000000000000000000000000000000000000000000000000000815260040161037f906110d4565b60405180910390fd5b600154600354106103ce576040517f08c379a00000000000000000000000000000000000000000000000000000000081526004016103c59061113c565b60405180910390fd5b5f3411610410576040517f08c379a0000000000000000000000000000000000000000000000000000000008152600401610407906111a4565b60405180910390fd5b60085f3373ffffffffffffffffffffffffffffffffffffffff1673ffffffffffffffffffffffffffffffffffffffff1681526020019081526020015f205f9054906101000a900460ff1661051457600533908060018154018082558091505060019003905f5260205f20015f9091909190916101000a81548173ffffffffffffffffffffffffffffffffffffffff021916908373ffffffffffffffffffffffffffffffffffffffff160217905550600160085f3373ffffffffffffffffffffffffffffffffffffffff1673ffffffffffffffffffffffffffffffffffffffff1681526020019081526020015f205f6101000a81548160ff0219169083151502179055505b3460075f3373ffffffffffffffffffffffffffffffffffffffff1673ffffffffffffffffffffffffffffffffffffffff1681526020019081526020015f205f82825461056091906111ef565b925050819055503460035f82825461057891906111ef565b92505081905550600660405180608001604052803373ffffffffffffffffffffffffffffffffffffffff1681526020013481526020014281526020015f1515815250908060018154018082558091505060019003905f5260205f2090600402015f909190919091505f820151815f015f6101000a81548173ffffffffffffffffffffffffffffffffffffffff021916908373ffffffffffffffffffffffffffffffffffffffff16021790555060208201518160010155604082015181600201556060820151816003015f6101000a81548160ff02191690831515021790555050503373ffffffffffffffffffffffffffffffffffffffff167f6770260ea820d2f539364e7617e021543aaf6d192f2fd2a47c20db6bd99a4eb93460405161069f9190610c6e565b60405180910390a2565b60025481565b5f600680549050905090565b60045f9054906101000a900473ffffffffffffffffffffffffffffffffffffffff1673ffffffffffffffffffffffffffffffffffffffff163373ffffffffffffffffffffffffffffffffffffffff161461074a576040517f08c379a00000000000000000000000000000000000000000000000000000000081526004016107419061126c565b60405180910390fd5b5f4790505f8111610790576040517f08c379a0000000000000000000000000000000000000000000000000000000008152600401610787906112d4565b60405180910390fd5b600660405180608001604052803373ffffffffffffffffffffffffffffffffffffffff16815260200183815260200142815260200160011515815250908060018154018082558091505060019003905f5260205f2090600402015f909190919091505f820151815f015f6101000a81548173ffffffffffffffffffffffffffffffffffffffff021916908373ffffffffffffffffffffffffffffffffffffffff16021790555060208201518160010155604082015181600201556060820151816003015f6101000a81548160ff02191690831515021790555050505f60045f9054906101000a900473ffffffffffffffffffffffffffffffffffffffff1673ffffffffffffffffffffffffffffffffffffffff16826040516108b19061131f565b5f6040518083038185875af1925050503d805f81146108eb576040519150601f19603f3d011682016040523d82523d5f602084013e6108f0565b606091505b5050905080610934576040517f08c379a000000000000000000000000000000000000000000000000000000000815260040161092b9061137d565b60405180910390fd5b7f430648de173157e069201c943adb2d4e340e7cf5b27b1b09c9cb852f03d63b56826040516109639190610c6e565b60405180910390a15050565b6007602052805f5260405f205f915090505481565b5f8054610990906113c8565b80601f01602080910402602001604051908101604052809291908181526020018280546109bc906113c8565b8015610a075780601f106109de57610100808354040283529160200191610a07565b820191905f5260205f20905b8154815290600101906020018083116109ea57829003601f168201915b505050505081565b60058181548110610a1e575f80fd5b905f5260205f20015f915054906101000a900473ffffffffffffffffffffffffffffffffffffffff1681565b5f600580549050905090565b60606006805480602002602001604051908101604052809291908181526020015f905b82821015610b2b578382905f5260205f2090600402016040518060800160405290815f82015f9054906101000a900473ffffffffffffffffffffffffffffffffffffffff1673ffffffffffffffffffffffffffffffffffffffff1673ffffffffffffffffffffffffffffffffffffffff1681526020016001820154815260200160028201548152602001600382015f9054906101000a900460ff16151515158152505081526020019060010190610a79565b50505050905090565b60045f9054906101000a900473ffffffffffffffffffffffffffffffffffffffff1681565b60606005805480602002602001604051908101604052809291908181526020018280548015610bda57602002820191905f5260205f20905b815f9054906101000a900473ffffffffffffffffffffffffffffffffffffffff1673ffffffffffffffffffffffffffffffffffffffff1681526020019060010190808311610b91575b5050505050905090565b60068181548110610bf3575f80fd5b905f5260205f2090600402015f91509050805f015f9054906101000a900473ffffffffffffffffffffffffffffffffffffffff1690806001015490806002015490806003015f9054906101000a900460ff16905084565b60015481565b60035481565b5f819050919050565b610c6881610c56565b82525050565b5f602082019050610c815f830184610c5f565b92915050565b5f5ffd5b5f73ffffffffffffffffffffffffffffffffffffffff82169050919050565b5f610cb482610c8b565b9050919050565b610cc481610caa565b8114610cce575f5ffd5b50565b5f81359050610cdf81610cbb565b92915050565b5f60208284031215610cfa57610cf9610c87565b5b5f610d0784828501610cd1565b91505092915050565b5f81519050919050565b5f82825260208201905092915050565b8281835e5f83830152505050565b5f601f19601f8301169050919050565b5f610d5282610d10565b610d5c8185610d1a565b9350610d6c818560208601610d2a565b610d7581610d38565b840191505092915050565b5f6020820190508181035f830152610d988184610d48565b905092915050565b610da981610c56565b8114610db3575f5ffd5b50565b5f81359050610dc481610da0565b92915050565b5f60208284031215610ddf57610dde610c87565b5b5f610dec84828501610db6565b91505092915050565b610dfe81610caa565b82525050565b5f602082019050610e175f830184610df5565b92915050565b5f81519050919050565b5f82825260208201905092915050565b5f819050602082019050919050565b610e4f81610caa565b82525050565b610e5e81610c56565b82525050565b5f8115159050919050565b610e7881610e64565b82525050565b608082015f820151610e925f850182610e46565b506020820151610ea56020850182610e55565b506040820151610eb86040850182610e55565b506060820151610ecb6060850182610e6f565b50505050565b5f610edc8383610e7e565b60808301905092915050565b5f602082019050919050565b5f610efe82610e1d565b610f088185610e27565b9350610f1383610e37565b805f5b83811015610f43578151610f2a8882610ed1565b9750610f3583610ee8565b925050600181019050610f16565b5085935050505092915050565b5f6020820190508181035f830152610f688184610ef4565b905092915050565b5f81519050919050565b5f82825260208201905092915050565b5f819050602082019050919050565b5f610fa48383610e46565b60208301905092915050565b5f602082019050919050565b5f610fc682610f70565b610fd08185610f7a565b9350610fdb83610f8a565b805f5b8381101561100b578151610ff28882610f99565b9750610ffd83610fb0565b925050600181019050610fde565b5085935050505092915050565b5f6020820190508181035f8301526110308184610fbc565b905092915050565b61104181610e64565b82525050565b5f60808201905061105a5f830187610df5565b6110676020830186610c5f565b6110746040830185610c5f565b6110816060830184611038565b95945050505050565b7f43616d706169676e20656e6465640000000000000000000000000000000000005f82015250565b5f6110be600e83610d1a565b91506110c98261108a565b602082019050919050565b5f6020820190508181035f8301526110eb816110b2565b9050919050565b7f54617267657420616c72656164792072656163686564000000000000000000005f82015250565b5f611126601683610d1a565b9150611131826110f2565b602082019050919050565b5f6020820190508181035f8301526111538161111a565b9050919050565b7f4d7573742073656e6420455448000000000000000000000000000000000000005f82015250565b5f61118e600d83610d1a565b91506111998261115a565b602082019050919050565b5f6020820190508181035f8301526111bb81611182565b9050919050565b7f4e487b71000000000000000000000000000000000000000000000000000000005f52601160045260245ffd5b5f6111f982610c56565b915061120483610c56565b925082820190508082111561121c5761121b6111c2565b5b92915050565b7f4f6e6c79206f776e6572000000000000000000000000000000000000000000005f82015250565b5f611256600a83610d1a565b915061126182611222565b602082019050919050565b5f6020820190508181035f8301526112838161124a565b9050919050565b7f4e6f2066756e64730000000000000000000000000000000000000000000000005f82015250565b5f6112be600883610d1a565b91506112c98261128a565b602082019050919050565b5f6020820190508181035f8301526112eb816112b2565b9050919050565b5f81905092915050565b50565b5f61130a5f836112f2565b9150611315826112fc565b5f82019050919050565b5f611329826112ff565b9150819050919050565b7f5769746864726177206661696c656400000000000000000000000000000000005f82015250565b5f611367600f83610d1a565b915061137282611333565b602082019050919050565b5f6020820190508181035f8301526113948161135b565b9050919050565b7f4e487b71000000000000000000000000000000000000000000000000000000005f52602260045260245ffd5b5f60028204905060018216806113df57607f821691505b6020821081036113f2576113f161139b565b5b5091905056fea2646970667358221220c7df91e903bd773391517ee90589e087c83dec51da11ba37e691f8f06d961a2b64736f6c634300081c0033",
  "linkReferences": {},
  "deployedLinkReferences": {},
  "immutableReferences": {},
  "inputSourceName": "project/contracts/Charity.sol",
  "buildInfoId": "solc-0_8_28-ce300c46d10040c651272c1e882567677cb8d802"
}