{
  "_format": "hh3-artifact-1",
  "contractName": "Charity",
  "sourceName": "contracts/Charity.sol",
  "abi": [
    {
      "inputs": [
        {
          "internalType": "string",
          "name": "_title",
          "type": "string"
        },
        {
          "internalType": "uint256",
          "name": "_target",
          "type": "uint256"
        },
        {
          "internalType": "uint256",
          "name": "_secondsUntilDeadline",
          "type": "uint256"
        }
      ],
      "stateMutability": "nonpayable",
      "type": "constructor"
    },
    {
      "anonymous": false,
      "inputs": [
        {
          "indexed": true,
          "internalType": "address",
          "name": "donor",
          "type": "address"
        },
        {
          "indexed": false,
          "internalType": "uint256",
          "name": "amount",
          "type": "uint256"
        }
      ],
      "name": "ContributionMade",
      "type": "event"
    },
    {
      "anonymous": false,
      "inputs": [
        {
          "indexed": false,
          "internalType": "uint256",
          "name": "amount",
          "type": "uint256"
        }
      ],
      "name": "Withdrawn",
      "type": "event"
    },
    {
      "inputs": [],
      "name": "contribute",
      "outputs": [],
      "stateMutability": "payable",
      "type": "function"
    },
    {
      "inputs": [
        {
          "internalType": "address",
          "name": "",
          "type": "address"
        }
      ],
      "name": "contributions",
      "outputs": [
        {
          "internalType": "uint256",
          "name": "",
          "type": "uint256"
        }
      ],
      "stateMutability": "view",
      "type": "function"
    },
    {
      "inputs": [],
      "name": "deadline",
      "outputs": [
        {
          "internalType": "uint256",
          "name": "",
          "type": "uint256"
        }
      ],
      "stateMutability": "view",
      "type": "function"
    },
    {
      "inputs": [
        {
          "internalType": "uint256",
          "name": "",
          "type": "uint256"
        }
      ],
      "name": "donors",
      "outputs": [
        {
          "internalType": "address",
          "name": "",
          "type": "address"
        }
      ],
      "stateMutability": "view",
      "type": "function"
    },
    {
      "inputs": [],
      "name": "getDonorCount",
      "outputs": [
        {
          "internalType": "uint256",
          "name": "",
          "type": "uint256"
        }
      ],
      "stateMutability": "view",
      "type": "function"
    },
    {
      "inputs": [],
      "name": "getDonors",
      "outputs": [
        {
          "internalType": "address[]",
          "name": "",
          "type": "address[]"
        }
      ],
      "stateMutability": "view",
      "type": "function"
    },
    {
      "inputs": [],
      "name": "getTransactionCount",
      "outputs": [
        {
          "internalType": "uint256",
          "name": "",
          "type": "uint256"
        }
      ],
      "stateMutability": "view",
      "type": "function"
    },
    {
      "inputs": [],
      "name": "getTransactions",
      "outputs": [
        {
          "components": [
            {
              "internalType": "address",
              "name": "user",
              "type": "address"
            },
            {
              "internalType": "uint256",
              "name": "amount",
              "type": "uint256"
            },
            {
              "internalType": "uint256",
              "name": "timestamp",
              "type": "uint256"
            },
            {
              "internalType": "bool",
              "name": "isWithdrawal",
              "type": "bool"
            }
          ],
          "internalType": "struct Charity.Transaction[]",
          "name": "",
          "type": "tuple[]"
        }
      ],
      "stateMutability": "view",
      "type": "function"
    },
    {
      "inputs": [],
      "name": "owner",
      "outputs": [
        {
          "internalType": "address",
          "name": "",
          "type": "address"
        }
      ],
      "stateMutability": "view",
      "type": "function"
    },
    {
      "inputs": [],
      "name": "raised",
      "outputs": [
        {
          "internalType": "uint256",
          "name": "",
          "type": "uint256"
        }
      ],
      "stateMutability": "view",
      "type": "function"
    },
    {
      "inputs": [],
      "name": "target",
      "outputs": [
        {
          "internalType": "uint256",
          "name": "",
          "type": "uint256"
        }
      ],
      "stateMutability": "view",
      "type": "function"
    },
    {
      "inputs": [],
      "name": "title",
      "outputs": [
        {
          "internalType": "string",
          "name": "",
          "type": "string"
        }
      ],
      "stateMutability": "view",
      "type": "function"
    },
    {
      "inputs": [
        {
          "internalType": "uint256",
          "name": "",
          "type": "uint256"
        }
      ],
      "name": "transactions",
      "outputs": [
        {
          "internalType": "address",
          "name": "user",
          "type": "address"
        },
        {
          "internalType": "uint256",
          "name": "amount",
          "type": "uint256"
        },
        {
          "internalType": "uint256",
          "name": "timestamp",
          "type": "uint256"
        },
        {
          "internalType": "bool",
          "name": "isWithdrawal",
          "type": "bool"
        }
      ],
      "stateMutability": "view",
      "type": "function"
    },
    {
      "inputs": [],
      "name": "withdraw",
      "outputs": [],
      "stateMutability": "nonpayable",
      "type": "function"
    },
    {
      "stateMutability": "payable",
      "type": "receive"
    }
  ],
  "bytecode": "0x608060405234801561000f575f5ffd5b50604051610e7b380380610e7b83398101604081905261002e91610112565b5f82116100775760405162461bcd60e51b81526020600482015260126024820152710546172676574206d757374206265203e20360741b60448201526064015b60405180910390fd5b5f81116100c65760405162461bcd60e51b815260206004820152601460248201527f446561646c696e65206d757374206265203e2030000000000000000000000000604482015260640161006e565b5f6100d18482610255565b5060018290556100e1814261030f565b6002555050600480546001600160a01b0319163317905550610334565b634e487b7160e01b5f52604160045260245ffd5b5f5f5f60608486031215610124575f5ffd5b83516001600160401b03811115610139575f5ffd5b8401601f81018613610149575f5ffd5b80516001600160401b03811115610162576101626100fe565b604051601f8201601f19908116603f011681016001600160401b0381118282101715610190576101906100fe565b6040528181528282016020018810156101a7575f5ffd5b8160208401602083015e5f6020928201830152908601516040909601519097959650949350505050565b600181811c908216806101e557607f821691505b60208210810361020357634e487b7160e01b5f52602260045260245ffd5b50919050565b601f82111561025057805f5260205f20601f840160051c8101602085101561022e5750805b601f840160051c820191505b8181101561024d575f815560010161023a565b50505b505050565b81516001600160401b0381111561026e5761026e6100fe565b6102828161027c84546101d1565b84610209565b6020601f8211600181146102b4575f831561029d5750848201515b5f19600385901b1c1916600184901b17845561024d565b5f84815260208120601f198516915b828110156102e357878501518255602094850194600190920191016102c3565b508482101561030057868401515f19600387901b60f8161c191681555b50505050600190811b01905550565b8082018082111561032e57634e487b7160e01b5f52601160045260245ffd5b92915050565b610b3a806103415f395ff3fe6080604052600436106100dc575f3560e01c806383920e901161007c5780639ace38c2116100575780639ace38c214610237578063d4b8399214610282578063d7bb99ba14610297578063f0ea4bfc1461029f575f5ffd5b806383920e90146101d65780638da5cb5b146101f757806396f300d414610216575f5ffd5b806342e94c90116100b757806342e94c901461013f5780634a79d50c1461016a5780634abfa1631461018b57806369bc2f1e146101c2575f5ffd5b806329dcb0cf146100ef5780632e7700f0146101175780633ccfd60b1461012b575f5ffd5b366100eb576100e96102b4565b005b5f5ffd5b3480156100fa575f5ffd5b5061010460025481565b6040519081526020015b60405180910390f35b348015610122575f5ffd5b50600654610104565b348015610136575f5ffd5b506100e961055f565b34801561014a575f5ffd5b5061010461015936600461097e565b60076020525f908152604090205481565b348015610175575f5ffd5b5061017e610799565b60405161010e91906109ab565b348015610196575f5ffd5b506101aa6101a53660046109e0565b610824565b6040516001600160a01b03909116815260200161010e565b3480156101cd575f5ffd5b50600554610104565b3480156101e1575f5ffd5b506101ea61084c565b60405161010e91906109f7565b348015610202575f5ffd5b506004546101aa906001600160a01b031681565b348015610221575f5ffd5b5061022a6108d9565b60405161010e9190610a67565b348015610242575f5ffd5b506102566102513660046109e0565b610939565b604080516001600160a01b0390951685526020850193909352918301521515606082015260800161010e565b34801561028d575f5ffd5b5061010460015481565b6100e96102b4565b3480156102aa575f5ffd5b5061010460035481565b60025442106102fb5760405162461bcd60e51b815260206004820152600e60248201526d10d85b5c185a59db88195b99195960921b60448201526064015b60405180910390fd5b600154600354106103475760405162461bcd60e51b815260206004820152601660248201527515185c99d95d08185b1c9958591e481c995858da195960521b60448201526064016102f2565b5f34116103865760405162461bcd60e51b815260206004820152600d60248201526c09aeae6e840e6cadcc8408aa89609b1b60448201526064016102f2565b335f9081526008602052604090205460ff166103f6576005805460018181019092557f036b6384b5eca791c62761152d0c79bb0604c104a5fb6f4eb0703f3154bb3db00180546001600160a01b031916339081179091555f908152600860205260409020805460ff191690911790555b335f9081526007602052604081208054349290610414908490610aa7565b925050819055503460035f82825461042c9190610aa7565b90915550506040805160808101825233808252346020808401828152428587019081525f6060870181815260068054600181018255925296517ff652222313e28459528d920b65115c16c04f3efc82aaedc97be59f3f377c0d3f600490920291820180546001600160a01b0319166001600160a01b0390921691909117905591517ff652222313e28459528d920b65115c16c04f3efc82aaedc97be59f3f377c0d40830155517ff652222313e28459528d920b65115c16c04f3efc82aaedc97be59f3f377c0d4182015593517ff652222313e28459528d920b65115c16c04f3efc82aaedc97be59f3f377c0d42909401805460ff1916941515949094179093559251928352917f6770260ea820d2f539364e7617e021543aaf6d192f2fd2a47c20db6bd99a4eb9910160405180910390a2565b6004546001600160a01b031633146105a65760405162461bcd60e51b815260206004820152600a60248201526927b7363c9037bbb732b960b11b60448201526064016102f2565b47806105df5760405162461bcd60e51b81526020600482015260086024820152674e6f2066756e647360c01b60448201526064016102f2565b6040805160808101825233815260208101838152428284019081526001606084018181526006805492830181555f90815294517ff652222313e28459528d920b65115c16c04f3efc82aaedc97be59f3f377c0d3f600493840290810180546001600160a01b0319166001600160a01b0393841617905594517ff652222313e28459528d920b65115c16c04f3efc82aaedc97be59f3f377c0d4086015592517ff652222313e28459528d920b65115c16c04f3efc82aaedc97be59f3f377c0d41850155517ff652222313e28459528d920b65115c16c04f3efc82aaedc97be59f3f377c0d42909301805460ff191693151593909317909255905492519192169083905f6040518083038185875af1925050503d805f811461071a576040519150601f19603f3d011682016040523d82523d5f602084013e61071f565b606091505b50509050806107625760405162461bcd60e51b815260206004820152600f60248201526e15da5d1a191c985dc819985a5b1959608a1b60448201526064016102f2565b6040518281527f430648de173157e069201c943adb2d4e340e7cf5b27b1b09c9cb852f03d63b569060200160405180910390a15050565b5f80546107a590610acc565b80601f01602080910402602001604051908101604052809291908181526020018280546107d190610acc565b801561081c5780601f106107f35761010080835404028352916020019161081c565b820191905f5260205f20905b8154815290600101906020018083116107ff57829003601f168201915b505050505081565b60058181548110610833575f80fd5b5f918252602090912001546001600160a01b0316905081565b60606006805480602002602001604051908101604052809291908181526020015f905b828210156108d0575f848152602090819020604080516080810182526004860290920180546001600160a01b03168352600180820154848601526002820154928401929092526003015460ff1615156060830152908352909201910161086f565b50505050905090565b6060600580548060200260200160405190810160405280929190818152602001828054801561092f57602002820191905f5260205f20905b81546001600160a01b03168152600190910190602001808311610911575b5050505050905090565b60068181548110610948575f80fd5b5f91825260209091206004909102018054600182015460028301546003909301546001600160a01b039092169350919060ff1684565b5f6020828403121561098e575f5ffd5b81356001600160a01b03811681146109a4575f5ffd5b9392505050565b602081525f82518060208401528060208501604085015e5f604082850101526040601f19601f83011684010191505092915050565b5f602082840312156109f0575f5ffd5b5035919050565b602080825282518282018190525f918401906040840190835b81811015610a5c57835180516001600160a01b03168452602080820151818601526040808301519086015260609182015115159185019190915290930192608090920191600101610a10565b509095945050505050565b602080825282518282018190525f918401906040840190835b81811015610a5c5783516001600160a01b0316835260209384019390920191600101610a80565b80820180821115610ac657634e487b7160e01b5f52601160045260245ffd5b92915050565b600181811c90821680610ae057607f821691505b602082108103610afe57634e487b7160e01b5f52602260045260245ffd5b5091905056fea264697066735822122018acceb4a1d28b9f9627bbf30e37d67929c4be7b0c67bc7decc7315f583fc39a64736f6c634300081c0033",
  "linkReferences": {},
  "deployedLinkReferences": {},
  "immutableReferences": {},
  "inputSourceName": "project/contracts/Charity.sol",
  "buildInfoId": "solc-0_8_28-d649cde08f7d7cd1b12772216588e04b86672670"
}